:100000000C9404040C9430040C9430040C943004CC
:100010000C9430040C9430040C9430040C94300490
:100020000C9430040C9430040C9430040C94300480
:100030000C9430040C9430040C9430040C94300470
:100040000C9430040C9430040C9430040C94300460
:100050000C9430040C9430040C9430040C940B1267
:100060000C9430040C9425140C9451150C94300409
:100070000C9430040C9430040C9430040C94300430
:100080000C9430040C9430040C9430040C94300420
:100090000C945E140C9490150C9430040C94300461
:1000A0000C9430040C9430040C9430040C94300400
:1000B0000C9430040C9430040C9430040C943004F0
:1000C0000C9430040C9430040C9430040C94971469
:1000D0000C94CF150C9430040C94D0140C940E1680
:1000E0000C94300405A84CCDB2D44EB93836A902D0
:1000F0000C50B9918688083CA6AAAA2ABE00000026
:10010000803F00002100240027002A002D0030003D
:10011000330001010000040107010A010000220070
:10012000250028002B002E003100340002010000C1
:10013000050108010B010000200023002600290012
:100140002C002F003200000100000301060109010C
:1001500005050505070508080808020202020A0A43
:100160000808040404040101010101010101030361
:10017000030303030303040707070C0C0C0C0C0C0C
:100180000C0C0202020206060606060606060B0B09
:100190000B0B0B0B0B0B010210202008081020404A
:1001A000102040800201020108040201010204083B
:1001B00010204080804020100804020180040201C9
:1001C0008040201008040201080402010102040812
:1001D0001020408001020408102040800000090A1D
:1001E00002080B0C0D0706030401000000000000CC
:1001F00000000000000000000000000000000000FF
:10020000000000000000000011100F0000000000BE
:1002100000000000000000000000000000000000DE
:10022000000000000000003E5B4F5B3E3E6B4F6BEA
:100230003E1C3E7C3E1C183C7E3C181C577D571CC7
:100240001C5E7F5E1C00183C1800FFE7C3E7FF0040
:1002500018241800FFE7DBE7FF30483A060E26298E
:10026000792926407F050507407F05253F5A3CE751
:100270003C5A7F3E1C1C08081C1C3E7F14227F2217
:10028000145F5F005F5F06097F017F006689956AE2
:10029000606060606094A2FFA29408047E0408106D
:1002A000207E201008082A1C08081C2A08081E1096
:1002B0001010100C1E0C1E0C30383E3830060E3E4E
:1002C0000E06000000000000005F000000070007AD
:1002D00000147F147F14242A7F2A122313086462D7
:1002E00036495620500008070300001C2241000038
:1002F00041221C002A1C7F1C2A08083E0808008096
:10030000703000080808080800006060002010082D
:1003100004023E5149453E00427F4000724949492E
:10032000462141494D331814127F10274545453960
:100330003C4A494931412111090736494949364664
:100340004949291E00001400000040340000000844
:1003500014224114141414140041221408020159E7
:1003600009063E415D594E7C1211127C7F49494974
:10037000363E414141227F4141413E7F4949494109
:100380007F090909013E414151737F0808087F0038
:10039000417F41002040413F017F081422417F40BE
:1003A0004040407F021C027F7F0408107F3E414195
:1003B000413E7F090909063E4151215E7F09192905
:1003C00046264949493203017F01033F4040403FEF
:1003D0001F2040201F3F4038403F63140814630330
:1003E000047804036159494D43007F4141410204AF
:1003F000081020004141417F0402010204404040B6
:100400004040000307080020545478407F284444AB
:10041000383844444428384444287F3854545418C5
:1004200000087E090218A4A49C787F0804047800C0
:10043000447D40002040403D007F102844000041A2
:100440007F40007C047804787C08040478384444B5
:100450004438FC1824241818242418FC7C080404AC
:1004600008485454542404043F44243C4040207C15
:100470001C2040201C3C4030403C44281028444C68
:100480009090907C4464544C440008364100000035
:10049000770000004136080002010204023C2623D6
:1004A000263C1EA1A161123A4040207A385454558E
:1004B000592155557941215454784121555478405A
:1004C00020545579400C1E527212395555555939E0
:1004D0005454545939555454580000457C41000235
:1004E000457D420001457C40F0292429F0F0282573
:1004F00028F07C545545002054547C547C0A097FD4
:100500004932494949323248484832324A484830EB
:100510003A4141217A3A42402078009DA0A07D399D
:10052000444444393D4040403D3C24FF2424487E1F
:100530004943662B2FFC2F2BFF0929F620C0887E0C
:10054000090320545479410000447D413048484A11
:1005500032384040227A007A0A0A727D0D19317DC4
:100560002629292F28262929292630484D40203898
:100570000808080808080808382F10C8ACBA2F1057
:100580002834FA00007B000008142A142222142ABE
:100590001408AA005500AAAA55AA55AA000000FFEF
:1005A00000101010FF00141414FF001010FF00FFC3
:1005B0001010F010F0141414FC001414F700FF00D5
:1005C00000FF00FF1414F404FC141417101F101083
:1005D0001F101F1414141F00101010F00000000052
:1005E0001F101010101F10101010F010000000FF4E
:1005F000101010101010101010FF10000000FF1449
:100600000000FF00FF00001F10170000FC04F4149E
:10061000141710171414F404F40000FF00F7141456
:100620001414141414F700F7141414171410101FD2
:10063000101F141414F4141010F010F000001F1008
:100640001F0000001F14000000FC140000F010F058
:100650001010FF10FF141414FF141010101F0000CE
:100660000000F010FFFFFFFFFFF0F0F0F0F0FFFFE1
:10067000FF0000000000FFFF0F0F0F0F0F38444472
:1006800038447C2A2A3E147E02020606027E027E3E
:100690000263554941633844443C04407E201E2097
:1006A00006027E020299A5E7A5991C2A492A1C4C3C
:1006B0007201724C304A4D4D303048784830BC623F
:1006C0005A463D3E494949007E0101017E2A2A2AB7
:1006D0002A2A44445F444440514A444040444A51D9
:1006E000400000FF0103E080FF000008086B6B087A
:1006F0003612362436060F090F06000018180000BF
:10070000001010003040FF0101001F01011E001900
:100710001D1712003C3C3C3C00000000000F018013
:10072000961180FFB103012C2DB203012C2DB306CD
:10073000012C2D012C2DB40107C003A20284C1019C
:10074000C5C2020A00C3028A2AC4028AEEC5010E8B
:1007500020003601C83A0105022A04000200812B5C
:1007600004000100A0022A040000007F2B04000006
:10077000009F04E010021C07123732292D29252B77
:100780003900010310E110031D07062E2C292D2E20
:100790002E373F0000021013800A29806412018066
:1007A000321180FF3A81050AB1830006030A36013F
:1007B00008B6021502B40100C08202700AC1010528
:1007C000C2020102C5823C380AFC021115E0100980
:1007D000160920211B131917151E2B0405020EE103
:1007E000900B14081E221D181E1B1A242B0606022D
:1007F0000F0A2A04000200812B04000200811380EA
:100800000A2980FF3204781711241FBECFEFD1E2EE
:10081000DEBFCDBF00E00CBF15E0A0E0B2E0EAE92A
:10082000FEE400E00BBF02C007900D92A23EB107AC
:10083000D9F718E0A2EEB5E001C01D92A13DB107C5
:10084000E1F718E0C8E0D8E004C02297FE010E945A
:100850004727C430D107C9F70E9496180C941E246C
:100860000C94000082EE95E066E047E028E00E94EC
:1008700054230895CF93DF9382EE95E060E070E01B
:1008800040E050E00E946A1F82EE95E060E078EF61
:100890000E94761FC0E0D0E007C082EE95E060E0E5
:1008A00072E00E94DD19219680919A0590919B0536
:1008B000C817D90794F382EE95E060E070E00E94DB
:1008C000761FC0919A05D0919B0507C082EE95E0F6
:1008D00060E072E00E94DD192196C330D105B4F3C7
:1008E000DF91CF9108958F929F92AF92BF92CF9256
:1008F000DF92EF92FF920F931F93CF93DF9382E0EB
:100900000E94D711AA2797FDA095BA2FBC01CD014F
:100910000E9428254B015C0182EE95E061E00E9477
:10092000701FC501B40120E030E048EC52E40E94A1
:100930008D240E94F5246B01B601882777FD8095F0
:10094000982F0E9428257B018C0160911E067091D2
:100950001F068091200690912106A80197010E9410
:1009600086241816DCF082EE95E060E070E04EE13F
:1009700050E00E946A1F82EE95E06FEF7FEF0E94C9
:10098000761FC0E0D0E007C082EE95E063E072E041
:100990000E94DD192196CC15DD05B4F360911E0689
:1009A00070911F068091200690912106A801970161
:1009B0000E94112618160CF046C082EE95E060E009
:1009C00070E04EE150E00E946A1F82EE95E060E028
:1009D00070E00E94761FC0E0D0E007C082EE95E094
:1009E00063E072E00E94DD192196BE01882777FD41
:1009F0008095982F0E94282520911E0630911F0671
:100A000040912006509121060E94862487FDE6CF62
:100A100082EE95E060E070E04EE150E00E946A1FD7
:100A200082EE95E060E070E00E94761FC0E0D0E0CA
:100A300007C082EE95E063E072E00E94DD19219626
:100A4000CC15DD05B4F3E0921E06F0921F0600936C
:100A5000200610932106C501B40120E030EC4FE7D9
:100A600054E40E948D24DF91CF911F910F91FF904C
:100A7000EF90DF90CF90BF90AF909F908F900895B0
:100A80001F9382EE95E060E070E00E94342182EED8
:100A900095E06FEF7FEF0E94761F82EE95E061E0B8
:100AA0000E94701F82EE95E060E070E040E050E050
:100AB0000E946A1F82EE95E063E00E94C72182EEE9
:100AC00095E065E072E00E94DA1982EE95E060E759
:100AD00072E00E94DA1982EE95E060E070E04FE586
:100AE00050E00E946A1F82EE95E060E078EF0E947D
:100AF000761F82EE95E061EF72E00E94DA1982EED5
:100B000095E060E070E047E650E00E946A1F82EEE8
:100B100095E060E070E00E94761F82EE95E065E06F
:100B200073E00E94DA1910922A0611E049C082EEA1
:100B300095E060E070E04FE550E00E946A1F80E0C1
:100B40000E94D7118B589240DCF082EE95E060E075
:100B500070E00E94761F82EE95E061EF72E00E94E5
:100B6000DA1982EE95E060E078EF0E94761F82EE5F
:100B700095E065E073E00E94DA1910932A0620C020
:100B800080E00E94D711825C9140D4F482EE95E01F
:100B900060E078EF0E94761F82EE95E061EF72E0F0
:100BA0000E94DA1982EE95E060E070E00E94761F04
:100BB00082EE95E065E073E00E94DA1910922A0651
:100BC00089E00E94F413019709F4B1CF82EE95E019
:100BD00060E00E94C7211F91089582EE95E060E0D9
:100BE00070E00E94342182EE95E06FEF7FEF0E946B
:100BF000761F82EE95E061E00E94701F82EE95E024
:100C000060E070E040E050E00E946A1F82EE95E0F4
:100C100063E00E94C72182EE95E069E173E00E94E3
:100C2000DA1982EE95E065E273E00E94DA1982EE4D
:100C300095E066EA73E00E94DA1905C089E00E9437
:100C4000F413892B29F089E00E94F4130197B1F382
:100C500082EE95E060E070E00E94342182EE95E043
:100C600060E070E040E050E00E946A1F82EE95E094
:100C70006BEC73E00E94DA1982EE95E062E174E0B9
:100C80000E94DA1982EE95E068E574E00E94DA19B4
:100C900082EE95E061E774E00E94DA1982EE95E059
:100CA0006FE774E00E94DA1905C089E00E94F4132E
:100CB000892B29F089E00E94F4130197B1F382EEA9
:100CC00095E060E00E94C721089582EE95E060E023
:100CD00070E00E94342182EE95E068E270E048E224
:100CE00050E00E946A1F82EE95E06FEF7FEF0E9456
:100CF000761F82EE95E064E00E94701F82EE95E020
:100D000063E00E94C72182EE95E06EE974E00E94E4
:100D1000DA1982EE95E061E00E94701F82EE95E0A4
:100D20006AE070E04AE550E00E946A1F82EE95E0BA
:100D300063EA74E00E94DA1905C089E00E94F413A6
:100D4000892B29F089E00E94F4130197B1F382EE18
:100D500095E060E00E94C72108950F931F93182F1C
:100D6000062F82EE95E060E070E00E94342182EE72
:100D700095E063E00E94C72182EE95E060E070E0BC
:100D800040E050E00E946A1F82EE95E06FEF7FEF37
:100D90000E94761F82EE95E06CEB74E00E94DA19F7
:100DA000112309F448C060910E0670910F068091DE
:100DB00010069091110620E030E044E353E40E94D5
:100DC00015262BED3FE049E450E40E948D240E945B
:100DD000F524DC01CB0168E671E00E94F526BC0138
:100DE00082EE95E04AE050E00E94A81982EE95E07C
:100DF00064EC74E00E94DD1982EE95E06DEC74E025
:100E00000E94DA19609112067091130680911406FF
:100E10009091150620E030E048EC52E40E9415263F
:100E20000E94F5249B01AC0182EE95E0B9014AE0F5
:100E300050E00E94BB19002309F448C060911606D7
:100E400070911706809118069091190620E030E005
:100E500044E353E40E9415262BED3FE049E450E4BF
:100E60000E948D240E94F524DC01CB0168E671E02C
:100E70000E94F526BC0182EE95E04AE050E00E9417
:100E8000A81982EE95E064EC74E00E94DD1982EE10
:100E900095E06DEC74E00E94DA1960911A06709189
:100EA0001B0680911C0690911D0620E030E048EC66
:100EB00052E40E9415260E94F5249B01AC0182EEAB
:100EC00095E0B9014AE050E00E94BB1982EE95E03E
:100ED00065ED74E00E94DA191F910F9108956F92E9
:100EE0007F928F929F92AF92BF92CF92DF92EF92BA
:100EF000FF920F931F93CF93DF936C01EB01BC0123
:100F0000635070403DEFE32E3FEFF32EEC0EFD1EDD
:100F100027E0A22EB12CA80EB91E9EEF892E9FEFBE
:100F2000992E8C0E9D1E82E0682E712C6C0E7D1EFB
:100F3000442309F465C082EE95E0AE0122E030E082
:100F40000FEF1FEF0E94561A82EE95E0B601A7013F
:100F500027E030E009E010E0EE24EA94FE2C0E9445
:100F6000471D82EE95E0B501A40126E030E00FEFC9
:100F70001FEF0E94E22082EE95E0B501A30126E07A
:100F800030E00E94E22080919A0590919B050397A2
:100F9000C1F4AE014A50504082EE95E0B60123E024
:100FA00030E008E010E00E94471DAE014C50504078
:100FB00082EE95E0B60121E030E00FEF1FEF0E94D6
:100FC000561A80919A0590919B05019709F07BC074
:100FD000279682EE95E0B601AE0123E030E008E00E
:100FE00010E0EE24EA94FE2C0E94471D269682EE25
:100FF00095E0B601AE0121E030E00FEF1FEF61C0D8
:1010000082EE95E0AE0122E030E000E010E00E94C8
:10101000561A82EE95E0B601A70127E030E009E01C
:1010200010E0EE24FF240E94471D82EE95E0B501FA
:10103000A40126E030E000E010E00E94E22082EE11
:1010400095E0B501A30126E030E00E94E220809106
:101050009A0590919B050397C1F4AE014A50504008
:1010600082EE95E0B60123E030E008E010E00E9457
:10107000471DAE014C50504082EE95E0B60121E094
:1010800030E000E010E00E94561A80919A0590919D
:101090009B050197C1F4279682EE95E0B601AE015B
:1010A00023E030E008E010E0EE24FF240E94471D1A
:1010B000269682EE95E0B601AE0121E030E000E038
:1010C00010E00E94561ADF91CF911F910F91FF906F
:1010D000EF90DF90CF90BF90AF909F908F907F90D8
:1010E0006F9008952F923F924F925F926F927F92EE
:1010F0008F929F92AF92BF92CF92DF92EF92FF9228
:101100000F931F93DF93CF930F92CDB7DEB71B01E1
:101110002C0149838091A005882361F06091980596
:1011200070919905882777FD8095982F0E94282532
:101130003B014C0180912806882321F480912906E7
:10114000882361F06091960570919705882777FD57
:101150008095982F0E9428253B014C01C201B101C6
:101160000E948A247B018C01C201B1010E94782671
:101170005B016C01C801B70120E030E040EA51E4B6
:101180000E9415269B01AC0160E070E088EC92E4BF
:101190000E9421241B012C01C601B50120E030E092
:1011A00040EA51E40E9415269B01AC01C401B30141
:1011B0000E9421247B018C0189818823E9F0C401EC
:1011C000B3010E94F5243B014C01C201B1010E9410
:1011D000F5245B016C01C801B7010E94F5247B0175
:1011E0008C0182EE95E064E670E0A3019501870131
:1011F000EE24EA94FE2C1BC0C401B3010E94F52426
:101200003B014C01C201B1010E94F5245B016C015C
:10121000C801B7010E94F5247B018C0182EE95E0A4
:1012200064E670E0A30195018701EE24FF240E948B
:101230009B1C0F90CF91DF911F910F91FF90EF902A
:10124000DF90CF90BF90AF909F908F907F906F90E6
:101250005F904F903F902F9008958091A005882334
:1012600009F450C0609198057091990580E790E06D
:1012700040E00E946F071092A00580912A06882303
:1012800021F081E08093290603C081E08093280645
:1012900081E090E090939B0580939A05609196057C
:1012A0007091970580E790E040E00E946F076091A1
:1012B00096057091970580E790E041E00E946F07E6
:1012C00060910E0670910F068091100690911106A4
:1012D00040E00E9472086091160670911706809196
:1012E00018069091190641E00E9472080E943A0483
:1012F0008091260690912706019690932706809369
:101300002606089580912806882329F480912906CD
:10131000882309F449C0609196057091970580E78C
:1013200090E040E00E946F07109228061092290674
:1013300081E08093A00583E090E090939B058093EB
:101340009A05609198057091990580E790E040E0DA
:101350000E946F07609198057091990580E790E071
:1013600041E00E946F076091160670911706809108
:1013700018069091190640E00E94720860910E06CE
:1013800070910F06809110069091110641E00E9425
:1013900072080E943A0480912606909127060196D1
:1013A000909327068093260608950F931F9382EE4D
:1013B00095E06FE770E040E050E020EA30E00FEFAA
:1013C0001FEF0E9490201F910F910895EF92FF92BE
:1013D0000F931F9305E518E0C80140E855E260E06F
:1013E00070E00E944D16C80163EF74E00E94DD19A1
:1013F00089E061E00E94C11384E060E00E940E1366
:1014000084E061E00E94C11302EE15E0C80162E0D1
:101410000E9426230E9465060E94ED050E94400559
:10142000C80160E070E00E94342185E00E94D7117D
:101430000E94301A62E370E080E090E00E94F019B0
:101440007B018C016CE370E080E090E00E94F01979
:1014500020919805309199052E0D3F1D30939905E7
:10146000209398052091960530919705260F371FF8
:10147000309397052093960568E270E080E090E055
:101480000E94F0197B018C016EE170E080E090E039
:101490000E94F01920919805309199052E193F0965
:1014A00030939905209398052091960530919705E2
:1014B000261B370B309397052093960581E0809388
:1014C000A005109228061092290683E090E09093E0
:1014D0009B0580939A050E94D509609198057091AB
:1014E000990580E790E041E00E946F070E943A046E
:1014F0001F910F91FF90EF9008954F925F926F921E
:101500007F928F929F92AF92BF92CF92DF92EF9293
:10151000FF920F931F93DF93CF93CDB7DEB7609702
:101520000FB6F894DEBF0FBECDBF29013A0120E00F
:1015300030E040EF51EC0E9415267B018C01C30185
:10154000B2010E9478269B01AC01C801B7010E943C
:1015500015266D877E878F87988B80912806882334
:1015600021F480912906882361F06091960570919D
:101570009705882777FD8095982F0E9428255B0185
:101580006C018091A005882361F0609198057091AD
:101590009905882777FD8095982F0E9428255B0163
:1015A0006C01C301B2010E948A249B01AC01C801F5
:1015B000B7010E9415267B018C010F2EF0E04F2E03
:1015C000F0E05F2EF8EC6F2EF2E47F2EF02D4D82CE
:1015D0005E826F82788680E090E0A0E0B0E0898350
:1015E0009A83AB83BC8331C269817A818B819C8170
:1015F0002DEC3CEC4CEC5DE30E94222469837A8361
:101600008B839C8321ED32E24BE75FE30E9415263A
:101610009B01AC01C801B7010E94222469877A8727
:101620008B879C8729813A814B815C810E9415269A
:101630009B01AC01C301B2010E9422247B018C01F9
:1016400069817A818B819C8121ED32E24BEF5EE3EF
:101650000E94152629813A814B815C810E941526C2
:101660009B01AC01C801B7010E9422246D837E83D7
:101670008F8398876D857E858F85988929813A81AA
:101680004B815C810E9415269B01AC01C601B5010E
:101690000E9422242B013C016D817E818F819885DF
:1016A0000E94F5244B015C01C301B2010E94F524A4
:1016B0006B017C0182EE95E0B401A60125E030E0EB
:1016C0000FEF1FEF0E94671C64E670E080E090E07F
:1016D0000E94531282EE95E0B401A60125E030E0AD
:1016E00000E010E00E94671CC301B20120E030E07E
:1016F00040E050E00E94862487FD0DC0C301B20186
:1017000020E030E041E253E40E9411261816FCF07C
:101710006301520161C080919A0590919B050197E8
:1017200009F4B6C1C301B20120E030E041E253E464
:101730000E94112618165CF00F2EF0E0AF2EF0E09C
:10174000BF2EF0E2CF2EF3E4DF2EF02D11C08091FA
:101750009A0590919B05039709F49AC10F2EF0E02A
:10176000AF2EF0E0BF2EF0E0CF2EF0E0DF2EF02D18
:101770000E94D5098091A005882391F06091980579
:101780007091990580E790E040E00E946F0780919A
:101790009A0590919B05019790939B0580939A05DC
:1017A00080912806882321F480912906882391F0CE
:1017B000609196057091970580E790E040E00E9467
:1017C0006F0780919A0590919B05019690939B05D8
:1017D00080939A050E943A0480919A0590919B0506
:1017E000019709F07FC08091A005882309F47AC091
:1017F000609196057091970580E790E041E00E9426
:101800006F0760E070E080EE92E42D813E814F81B1
:1018100058850E9421247B018C0120E030E040E0CB
:1018200050E00E94112618161CF4C801B70103C02D
:10183000C801B70190580E94F5244B0160919605AC
:1018400070919705882777FD8095982F0E9428250D
:10185000A30192010E9421247B018C0120E030E051
:1018600040E050E00E94112618161CF4C801B70190
:1018700003C0C801B70190580E94F52494E189166D
:10188000910484F5643171056CF580919E05909109
:101890009F05019790939F0580939E0582EE95E0AA
:1018A00060E070E00E94342182EE95E063E00E94E7
:1018B000C72182EE95E060E078EF0E94761F82EE0D
:1018C00095E064E170E048E250E00E946A1F82EE19
:1018D00095E067E075E00E94DA1960919E057091CD
:1018E0009F058BC080919A0590919B05039709F005
:1018F000A4C080912806882329F480912906882392
:1019000009F49BC0609198057091990580E790E07B
:1019100041E00E946F0760E070E080EE92E42D816C
:101920003E814F8158850E9421247B018C0120E05B
:1019300030E040E050E00E94112618161CF4C80167
:10194000B70103C0C801B70190580E94F5244B01AC
:101950006091980570919905882777FD8095982F5B
:101960000E942825A30192010E9421247B018C0161
:1019700020E030E040E050E00E94112618161CF4F0
:10198000C801B70103C0C801B70190580E94F524EF
:10199000A4E18A1691040CF050C0643171050CF07A
:1019A0004CC080919C0590919D05019790939D0559
:1019B00080939C0582EE95E060E070E00E94342107
:1019C00082EE95E063E00E94C72182EE95E060E040
:1019D00078EF0E94761F82EE95E064E170E048E2C5
:1019E00050E00E946A1F82EE95E066E375E00E9477
:1019F000DA1960919C0570919D0582EE95E04AE0B0
:101A000050E00E94A81982EE95E065E275E00E9420
:101A1000DA1968EB7BE080E090E00E94531282EEDE
:101A200095E060E070E00E94342182EE95E060E095
:101A30000E94C7210E9473042BC04D805E806F807E
:101A40007884E984FA840B851C856D817E818F8181
:101A5000988520E030E048E452EC0E9411261816E8
:101A6000BCF46D817E818F81988520E030E041E07B
:101A700053E40E94862488235CF480919A05909117
:101A80009B058430910524F4181619060CF4ACCD8E
:101A90000E94D50960960FB6F894DEBF0FBECDBF89
:101AA000CF91DF911F910F91FF90EF90DF90CF903A
:101AB000BF90AF909F908F907F906F905F904F906E
:101AC00008952F923F924F925F926F927F928F92E2
:101AD0009F92AF92BF92CF92DF92EF92FF920F93BD
:101AE0001F9380919C0590919D051816190644F44A
:101AF00080919E0590919F05181619060CF463C0FD
:101B000082EE95E060E070E00E94342182EE95E084
:101B100060E070E048E250E00E946A1F82EE95E0CB
:101B200062E00E94701F82EE95E060EE77E00E9416
:101B3000761F82EE95E063E00E94C72182EE95E079
:101B400064E575E00E94DD1982EE95E061E00E9497
:101B5000701F80919C0590919D051816190634F010
:101B600082EE95E060E675E00E94DA1980919E05AC
:101B700090919F051816190634F082EE95E069E7FA
:101B800075E00E94DA1968E873E180E090E00E9455
:101B9000531282EE95E060E070E00E94342182EE04
:101BA00095E060E00E94C72183E090E090939D055E
:101BB00080939C0590939F0580939E0581E0809380
:101BC0002B060E94E60980912B06882309F466C043
:101BD00081E08093A005109228061092290683E0E8
:101BE00090E090939D0580939C0590939F05809332
:101BF0009E0590939B0580939A051092270610925C
:101C0000260660910E0670910F0680911006909145
:101C1000110640E00E947208609116067091170646
:101C2000809118069091190640E00E94720880E0A9
:101C300090E0A0E0B0E080930E0690930F06A09392
:101C40001006B09311068093160690931706A09382
:101C50001806B09319060E94D5090E943A040E9402
:101C60007304609198057091990580E790E040E0D9
:101C70000E946F07609196057091970580E790E04C
:101C800040E00E946F07609198057091990580E788
:101C900090E041E00E946F0710922B068091A00512
:101CA000882309F4F5C080E00E94D7112C0185E655
:101CB000481682E05806BCF1E0900E06F0900F0640
:101CC0000091100610911106C801B70120E030E024
:101CD00044E353E40E9415262BED3FE049E450E431
:101CE0000E948D2420E030E042E053E40E948624EC
:101CF0008823CCF4C801B70125E33AEF4EE85CE352
:101D00000E94222460930E0670930F0680931006A3
:101D10009093110625E33AEF4EE85CE30E942124FC
:101D200040E00E94720860910E0670910F0680914B
:101D300010069091110641E00E9472088CE9481645
:101D400081E05806BCF5E0900E06F0900F06009179
:101D5000100610911106C801B70120E030E044E3FD
:101D600053E40E9415262BED3FE049E450E40E9425
:101D70008D2420E030E042E053EC0E94112618163A
:101D8000CCF4C801B70125E33AEF4EE85CE30E94CA
:101D9000212460930E0670930F0680931006909393
:101DA000110625E33AEF4EE85CE30E94222440E06E
:101DB0000E94720860910E0670910F0680911006C5
:101DC0009091110641E00E9472080E947304609392
:101DD000120670931306809314069093150684E000
:101DE0000E94F413892BA1F46091120670911306DE
:101DF000809114069091150620910E0630910F06E1
:101E000040911006509111060E947D0A0E942D09F2
:101E100089E00E94F413892BD9F58091A005609187
:101E200028060E94AD0689E00E94F4130197D9F3B9
:101E300089E00E94F413892B29F582EE95E060E099
:101E40000E94C72182EE95E060E070E00E9434219C
:101E50000E94D5090E943A040E947304609198057B
:101E60007091990580E790E041E00E946F076091D2
:101E70000E0670910F06809110069091110641E0B8
:101E80000E94720868EC70E080E090E00E945312BB
:101E900080912806882309F4FCC080919E059091CA
:101EA0009F05892B09F4F5C080E00E94D7112C0111
:101EB00085E6481682E05806BCF1E0901606F090E0
:101EC00017060091180610911906C801B70120E005
:101ED00030E044E353E40E9415262BED3FE049E453
:101EE00050E40E948D2420E030E042E053EC0E9458
:101EF00011261816CCF4C801B70125E33AEF4EE8D5
:101F00005CE30E9421246093160670931706809369
:101F100018069093190625E33AEF4EE85CE30E9419
:101F2000222440E00E947208609116067091170604
:101F3000809118069091190641E00E9472088CE980
:101F4000481681E05806BCF5E0901606F09017069A
:101F50000091180610911906C801B70120E030E081
:101F600044E353E40E9415262BED3FE049E450E49E
:101F70000E948D2420E030E042E053E40E94862459
:101F80008823CCF4C801B70125E33AEF4EE85CE3BF
:101F90000E942224609316067093170680931806F9
:101FA0009093190625E33AEF4EE85CE30E94212462
:101FB00040E00E94720860911606709117068091A9
:101FC00018069091190641E00E9472080E9473045D
:101FD00060931A0670931B0680931C0690931D064F
:101FE00084E00E94F413892BA1F460911A06709189
:101FF0001B0680911C0690911D06209116063091BB
:10200000170640911806509119060E947D0A0E94F9
:102010002D0989E00E94F413892BD9F58091A00540
:10202000609128060E94AD0689E00E94F413019792
:10203000D9F389E00E94F413892B29F582EE95E00B
:1020400060E00E94C72182EE95E060E070E00E94AF
:1020500034210E94D5090E943A040E9473046091C1
:1020600096057091970580E790E041E00E946F0728
:1020700060911606709117068091180690911906C6
:1020800041E00E94720868EC70E080E090E00E94FD
:10209000531280912906882309F478C180919E0506
:1020A00090919F05892B09F471C16091160670917A
:1020B0001706809118069091190640E00E94720858
:1020C00080912606909127060197C9F484EF9CE53C
:1020D000A0E2BFE380931A0690931B06A0931C0610
:1020E000B0931D068DE394E1A5E4BFEB8093160643
:1020F00090931706A0931806B093190618C1609123
:102100001A0670911B0680911C0690911D0620E016
:1021100030E040EF51E40E9415267B018C012090B5
:102120001606309017064090180650901906C20106
:10213000B101A20191010E9422240E9478265B0134
:102140006C016091960570919705882777FD8095C1
:10215000982F0E9428253B014C01C801B701A80116
:1021600097010E941526A60195010E94152621EDD2
:1021700032E24BE75FEB0E948D249B01AC01C4016E
:10218000B3010E94222420E030E040E251E40E94AA
:1021900021247B018C016091980570919905882715
:1021A00077FD8095982F0E9428259B01AC01C801DE
:1021B000B7010E94212420E030E040EA53E40E946D
:1021C00021247B018C0120E030E040E050E00E94BF
:1021D000112618160CF04CC060E070E080E090E032
:1021E00025E030E040E050E00E94121A0E942825CD
:1021F0002BED3FE049E450E40E94152620E030E05A
:1022000044E353E40E948D249B01AC01C201B1015F
:102210000E94212460931606709317068093180677
:102220009093190661E070E080E090E025E030E0F6
:1022300040E050E00E94121A0E94282520E030E081
:1022400048EC52E40E948D249B01AC0160911A0677
:1022500070911B0680911C0690911D060E942124FE
:1022600060931A0670931B0680931C0690931D06BC
:10227000C801B70120E030E040E050E00E94862431
:1022800088230CF054C0E0901606F09017060091D9
:1022900018061091190660E070E080E090E025E0FB
:1022A00030E040E050E00E94121A0E9428252BEDF9
:1022B0003FE049E450E40E94152620E030E044E38A
:1022C00053E40E948D249B01AC01C801B7010E9418
:1022D0002224609316067093170680931806909335
:1022E000190661E070E080E090E025E030E040E039
:1022F00050E00E94121A0E94282520E030E048ECAD
:1023000052E40E948D249B01AC0160911A067091E9
:102310001B0680911C0690911D060E94222460934A
:102320001A0670931B0680931C0690931D066091FD
:10233000160670911706809118069091190641E0D3
:102340000E94720860911A0670911B0680911C060B
:1023500090911D062091160630911706409118069F
:10236000509119060E947D0A0E942D09809116063F
:1023700090911706A0911806B09119068093220635
:1023800090932306A0932406B09325061F910F91E6
:10239000FF90EF90DF90CF90BF90AF909F908F9085
:1023A0007F906F905F904F903F902F900895382FBF
:1023B000863308F0365320917B00832F86958695CF
:1023C000869590E08170907043E0880F991F4A9540
:1023D000E1F7277F282B20937B0037708091A105A0
:1023E0008295880F880F807C832B80937C0080915E
:1023F0007A00806480937A0080917A0086FDFCCF19
:102400002091780040917900942F80E030E0282BD3
:10241000392BC90108951F920F920FB60F92112404
:102420002F933F938F939F93AF93BF9380913006E9
:1024300090913106A0913206B09133063091340666
:102440000196A11DB11D232F2D5F2D3720F02D5793
:102450000196A11DB11D2093340680933006909300
:102460003106A0933206B093330680912C069091EA
:102470002D06A0912E06B0912F060196A11DB11D2B
:1024800080932C0690932D06A0932E06B0932F06D2
:10249000BF91AF919F918F913F912F910F900FBE60
:1024A0000F901F9018959B01AC017FB7F894809115
:1024B0002C0690912D06A0912E06B0912F0666B5A0
:1024C000A89B05C06F3F19F00196A11DB11D7FBFEC
:1024D000BA2FA92F982F8827860F911DA11DB11DF6
:1024E00062E0880F991FAA1FBB1F6A95D1F7BC0134
:1024F0002DC0FFB7F89480912C0690912D06A091E5
:102500002E06B0912F06E6B5A89B05C0EF3F19F047
:102510000196A11DB11DFFBFBA2FA92F982F8827A3
:102520008E0F911DA11DB11DE2E0880F991FAA1FFA
:10253000BB1FEA95D1F7861B970B885E9340C8F2C4
:10254000215030404040504068517C4F21153105AA
:102550004105510571F60895789484B5826084BD73
:1025600084B5816084BD85B5826085BD85B5816097
:1025700085BDEEE6F0E0808181608083E1E8F0E0F7
:102580001082808182608083808181608083E0E826
:10259000F0E0808181608083E1EBF0E08081846005
:1025A0008083E0EBF0E0808181608083E1E9F0E00E
:1025B000808182608083808181608083E0E9F0E0B7
:1025C000808181608083E1EAF0E0808182608083A5
:1025D000808181608083E0EAF0E080818160808397
:1025E000E1E2F1E08081826080838081816080838C
:1025F000E0E2F1E0808181608083EAE7F0E08081C1
:102600008460808380818260808380818160808318
:102610008081806880831092C1000895CF93DF93FA
:10262000482F50E0CA018A569E4FFC013491405B0E
:102630005E4FFA018491882369F190E0880F991F19
:10264000FC01EE5FFE4FA591B491FC01E45EFE4FEC
:10265000C591D491662351F42FB7F8948C91932FA0
:10266000909589238C93888189230BC0623061F413
:102670002FB7F8948C91932F909589238C93888110
:10268000832B88832FBF06C09FB7F8948C91832B30
:102690008C939FBFDF91CF910895893009F449C091
:1026A0008A30A0F4843051F1853040F4823079F1E1
:1026B000833000F5813009F063C026C0873079F19E
:1026C000883098F5863009F05BC025C08D3009F45C
:1026D00042C08E3028F48B30B1F18C30C0F52DC063
:1026E000803109F442C0813109F445C08F3009F0CE
:1026F00047C037C0809180008F7703C080918000F1
:102700008F7D80938000089584B58F7702C084B553
:102710008F7D84BD08958091B0008F7703C0809134
:10272000B0008F7D8093B0000895809190008F77E6
:1027300007C0809190008F7D03C080919000877FBB
:102740008093900008958091A0008F7707C08091BA
:10275000A0008F7D03C08091A000877F8093A000A0
:102760000895809120018F7703C0809120018F7D93
:1027700080932001089580912001877F809320011C
:102780000895FF920F931F93F62E482F50E0CA0131
:1027900084529E4FFC012491CA018A569E4FFC012F
:1027A0001491405B5E4FFA0104910023C9F022238B
:1027B00019F0822F0E944D13E02FF0E0EE0FFF1F63
:1027C000E45EFE4FA591B4919FB7F894FF2021F4E9
:1027D0008C911095812302C08C91812B8C939FBF8B
:1027E0001F910F91FF9008950F931F93482F50E072
:1027F000CA0184529E4FFC012491CA018A569E4F01
:10280000FC010491405B5E4FFA011491112319F40D
:1028100020E030E015C0222319F0822F0E944D13D2
:10282000812F90E0880F991F8A5C9E4FFC01A59133
:10283000B4918C9120E030E0802311F021E030E071
:10284000C9011F910F91089508951F920F920FB61D
:102850000F920BB60F9211242F933F934F938F93A8
:102860009F93EF93FF934091C6002091750630919E
:1028700076062F5F3F4F2F733070809177069091CF
:1028800078062817390759F0E0917506F091760619
:10289000EB5CF94F40833093760620937506FF91E9
:1028A000EF919F918F914F913F912F910F900BBE80
:1028B0000F900FBE0F901F90189508951F920F92C2
:1028C0000FB60F920BB60F9211242F933F934F9395
:1028D0008F939F93EF93FF934091CE002091FD063D
:1028E0003091FE062F5F3F4F2F7330708091FF06AF
:1028F000909100072817390759F0E091FD06F091F3
:10290000FE06E354F94F40833093FE062093FD0604
:10291000FF91EF919F918F914F913F912F910F9048
:102920000BBE0F900FBE0F901F90189508951F9229
:102930000F920FB60F920BB60F9211242F933F9365
:102940004F938F939F93EF93FF934091D6002091E5
:102950008507309186072F5F3F4F2F73307080912E
:102960008707909188072817390759F0E091850764
:10297000F0918607EB5BF84F4083309386072093F6
:102980008507FF91EF919F918F914F913F912F91EB
:102990000F900BBE0F900FBE0F901F9018950895CB
:1029A0001F920F920FB60F920BB60F9211242F9316
:1029B0003F934F938F939F93EF93FF9340913601F3
:1029C00020910D0830910E082F5F3F4F2F7330700C
:1029D00080910F08909110082817390759F0E0915D
:1029E0000D08F0910E08E353F84F408330930E0822
:1029F00020930D08FF91EF919F918F914F913F91FF
:102A00002F910F900BBE0F900FBE0F901F90189537
:102A1000E0916108F0916208E05CFF4F8191919133
:102A200020813181821B930B8F739070892B11F061
:102A30000E942414E0918008F0918108E05CFF4F2F
:102A40008191919120813181821B930B8F739070C2
:102A5000892B11F00E945D14E0919F08F091A0086D
:102A6000E05CFF4F8191919120813181821B930B1A
:102A70008F739070892B11F00E949614E091BE081C
:102A8000F091BF08E05CFF4F8191919120813181ED
:102A9000821B930B8F739070892B11F00E94CF14BF
:102AA00008951F920F920FB60F920BB60F9211243A
:102AB0002F933F938F939F93EF93FF932091B906AA
:102AC0003091BA068091BB069091BC062817390751
:102AD00031F48091C1008F7D8093C10014C0E091DA
:102AE000BB06F091BC06E758F94F20818091BB06E8
:102AF0009091BC0601968F7390709093BC06809362
:102B0000BB062093C600FF91EF919F918F913F915B
:102B10002F910F900BBE0F900FBE0F901F90189526
:102B20001F920F920FB60F920BB60F9211242F9394
:102B30003F938F939F93EF93FF93209141073091A1
:102B4000420780914307909144072817390731F4D1
:102B50008091C9008F7D8093C90014C0E091430724
:102B6000F0914407EF5FF84F2081809143079091E7
:102B7000440701968F7390709093440780934307A6
:102B80002093CE00FF91EF919F918F913F912F91D4
:102B90000F900BBE0F900FBE0F901F9018951F92B5
:102BA0000F920FB60F920BB60F9211242F933F93F3
:102BB0008F939F93EF93FF932091C9073091CA079A
:102BC0008091CB079091CC072817390731F4809179
:102BD000D1008F7D8093D10014C0E091CB07F0919C
:102BE000CC07E757F84F20818091CB079091CC0715
:102BF00001968F7390709093CC078093CB072093AE
:102C0000D600FF91EF919F918F913F912F910F905F
:102C10000BBE0F900FBE0F901F9018951F920F9232
:102C20000FB60F920BB60F9211242F933F938F93F1
:102C30009F93EF93FF932091510830915208809118
:102C40005308909154082817390731F480913101C5
:102C50008F7D8093310114C0E0915308F0915408A6
:102C6000EF5EF74F208180915308909154080196B0
:102C70008F7390709093540880935308209336017B
:102C8000FF91EF919F918F913F912F910F900BBEEC
:102C90000F900FBE0F901F901895AF92BF92DF92CA
:102CA000EF92FF920F931F93CF93DF93EC017A0182
:102CB0008B01DD24403081EE580780E0680780E01A
:102CC000780711F0DD24D39491E0A92EB12CEC8982
:102CD000FD89DD2069F0C5010E8C02C0880F991FA7
:102CE0000A94E2F7808360E079E08DE390E005C02C
:102CF000108260E874E88EE190E0A80197010E94DC
:102D00000827215030404040504056954795379510
:102D1000279580E12030380720F0DD2011F0DD24F8
:102D2000D6CFE889F9893083EA89FB892083EE8947
:102D3000FF89408121E030E0C9010A8C02C0880F80
:102D4000991F0A94E2F7482B4083EE89FF8940815E
:102D5000C9010B8C02C0880F991F0A94E2F7482B17
:102D60004083EE89FF894081C9010C8C02C0880F25
:102D7000991F0A94E2F7482B4083EE89FF898081EE
:102D80000D8C02C0220F331F0A94E2F720952823EE
:102D90002083DF91CF911F910F91FF90EF90DF90F3
:102DA000BF90AF900895DC011C96ED91FC911D97AA
:102DB000E05CFF4F2191319180819181281B390B7B
:102DC0002F733070C9010895DC011C96ED91FC91C0
:102DD0001D97E05CFF4F20813181E054F040DF011E
:102DE000AE5BBF4F8D919C9111972817390719F44D
:102DF0002FEF3FEF07C08D919C91E80FF91F808165
:102E0000282F30E0C9010895DC011C96ED91FC915A
:102E10001D97E05CFF4F20813181E054F040DF01DD
:102E2000AE5BBF4F8D919C9111972817390719F40C
:102E30002FEF3FEF10C08D919C911197E80FF91F74
:102E400020818D919C91119701968F7390701196AE
:102E50009C938E9330E0C9010895FC018685978587
:102E6000DC01A05CBF4FFC01EE5BFF4F2D913C915C
:102E700011978081918128173907C1F70895CF9361
:102E8000DF93EC01EE85FF85E05CFF4F208131810F
:102E9000E054F0402F5F3F4F2F733070DF01AE5B87
:102EA000BF4F8D919C91119728173907D1F3E05CA2
:102EB000FF4F80819181E054F040E80FF91F60835B
:102EC000EE85FF85E05CFF4F31832083EE89FF892B
:102ED000208181E090E00D8C02C0880F991F0A9438
:102EE000E2F7282B208381E090E0DF91CF910895D5
:102EF0001F93109258081092570828EE33E040E0D4
:102F000050E02093590830935A0840935B0850933F
:102F10005C0866EA75E0709356086093550885E38F
:102F200096E0909362088093610889E796E0909319
:102F300064088093630885EC90E090936608809322
:102F4000650884EC90E0909368088093670880ECB3
:102F500090E090936A088093690881EC90E09093E8
:102F60006C0880936B0886EC90E090936E088093D9
:102F70006D0814E010936F08B3E0B0937008A7E0F9
:102F8000A0937108F5E0F0937208E1E0E093730814
:102F90001092770810927608209378083093790879
:102FA00040937A0850937B08709375086093740877
:102FB0008DEB96E0909381088093800881E097E004
:102FC00090938308809382088DEC90E0909385081D
:102FD000809384088CEC90E0909387088093860817
:102FE00088EC90E0909389088093880889EC90E0C1
:102FF00090938B0880938A088EEC90E090938D08D4
:1030000080938C0810938E08B0938F08A09390083B
:10301000F0939108E0939208109296081092950808
:1030200020939708309398084093990850939A08F2
:10303000709394086093930885E497E09093A008B8
:1030400080939F0889E897E09093A2088093A10855
:1030500085ED90E09093A4088093A30884ED90E020
:103060009093A6088093A50880ED90E09093A8081F
:103070008093A70881ED90E09093AA088093A90817
:1030800086ED90E09093AC088093AB081093AD0868
:10309000B093AE08A093AF08F093B008E093B108E6
:1030A0001092B5081092B4082093B6083093B70870
:1030B0004093B8085093B9087093B3086093B2086E
:1030C0008DEC97E09093BF088093BE0881E198E073
:1030D0009093C1088093C00885E391E09093C30862
:1030E0008093C20884E391E09093C5088093C4085C
:1030F00080E391E09093C7088093C60881E391E054
:103100009093C9088093C80886E391E09093CB0818
:103110008093CA081093CC08B093CD08A093CE0832
:10312000F093CF08E093D0081F910895CF93DF93D9
:103130000E94AC120E94E609C8E0D5E10E94610D30
:103140002097E1F30E940815F9CF0895CF92DF92FE
:10315000EF92FF920F931F93CF93DF937C016B014C
:103160008A01C0E0D0E00FC0D6016D916D01D7019A
:10317000ED91FC910190F081E02DC7011995C80FE8
:10318000D91F015010400115110571F7CE01DF91D3
:10319000CF911F910F91FF90EF90DF90CF90089506
:1031A000EF92FF920F931F938C01DC01ED91FC9144
:1031B0000190F081E02D6DE019957C01D801ED9131
:1031C000FC910190F081E02DC8016AE019959C0105
:1031D0002E0D3F1DC9011F910F91FF90EF90089593
:1031E000CF93DF93DB010D900020E9F71197A61B29
:1031F000B70BEC01E881F9810280F381E02DAD018C
:103200001995DF91CF9108954F925F927F928F929F
:103210009F92AF92BF92CF92DF92EF92FF920F9365
:103220001F93DF93CF93CDB7DEB7A1970FB6F89476
:10323000DEBF0FBECDBF2C01742ECB01223008F4AF
:103240002AE019A231E2C32ED12CCC0EDD1E822E33
:103250009924AA24BB24672D752FA50194010E94EF
:10326000082779018A01C801B701A50194010E94CC
:10327000C226472D461B0894C108D1084A3014F4D1
:10328000405D01C0495CF6014083E114F104010591
:10329000110521F07E2C5F2DC801DDCFC201B601E2
:1032A0000E94F018A1960FB6F894DEBF0FBECDBFF6
:1032B000CF91DF911F910F91FF90EF90DF90CF9012
:1032C000BF90AF909F908F907F905F904F900895A8
:1032D000CF92DF92EF92FF920F931F93CF93DF93E2
:1032E000EC016A017B012115310541F4E881F98186
:1032F0000190F081E02D642F19951FC02A3031050F
:10330000D1F477FF17C0E881F9810190F081E02DB9
:103310006DE219958C0144275527BA014C195D09B6
:103320006E097F09CE012AE00E9404199801280F36
:10333000391F04C02AE00E9404199C01C901DF91D1
:10334000CF911F910F91FF90EF90DF90CF90089554
:10335000EF92FF920F931F937B019A010027F7FCD6
:103360000095102FB801A7010E9468191F910F91B5
:10337000FF90EF900895CF92DF92EF92FF920F931C
:103380001F936C017B019A010027F7FC0095102F19
:10339000B801A7010E9468198C01C6010E94D018CB
:1033A000080F191FC8011F910F91FF90EF90DF9038
:1033B000CF9008950E94F0180895EF92FF920F9316
:1033C0001F937C010E94F0188C01C7010E94D01845
:1033D000080F191FC8011F910F91FF90EF900895DA
:1033E000EF92FF920F931F937B018C016115710582
:1033F0008105910529F420E030E040E050E00BC069
:103400000E941024A80197010E942A27AC01CB0139
:10341000DA019C01AD01B901CA011F910F91FF9022
:10342000EF900895EF92FF920F931F937B018C0111
:10343000621773078407950764F4261B370B480B44
:10344000590BCA01B9010E94F019E60EF71E081FB8
:10345000191FB701C8011F910F91FF90EF900895B8
:10346000009729F0BC0180E090E00E9415240895A7
:10347000FC011382128286EB95E091838083758331
:103480006483578346837187608753874287158A91
:10349000158614861786168621E0248B8FEF9FEF02
:1034A000938B828B918B808B268B08952F923F92EA
:1034B0004F925F926F927F928F929F92AF92BF9244
:1034C000CF92DF92EF92FF920F931F93DF93CF93F0
:1034D000CDB7DEB728970FB6F894DEBF0FBECDBFCD
:1034E00098878F831B012A017901580121E030E080
:1034F0002E193F093E832D83C701880F991FAA27E4
:10350000BB27A81BB90BBA83A983AF81B885ED91FE
:10351000FC911197A701440D551D0480F581E02D04
:10352000CD0198011995AF81B885ED91FC91119766
:10353000A2014E195F090480F581E02DCD01B10192
:1035400098011995AF81B885ED91FC911197B7015C
:10355000620D731D0480F581E02DCD01A20198015B
:103560001995AF81B885ED91FC911197B1016E1954
:103570007F090480F581E02DCD01A2019801199504
:103580003701E1E0F0E0FC83EB83882499249EC0BE
:103590002D813E8137FD0CC0089461087108898136
:1035A0009A8102969A838983280F391F3E832D833F
:1035B0000894811C911CAB81BC811296BC83AB83A7
:1035C000ED81FE81EA0FFB1FFE83ED836401C20CD7
:1035D000D31C8301040D151DAF81B885ED91FC91BD
:1035E00011970480F581E02DCD01B601A801950168
:1035F00019957101E818F908AF81B885ED91FC9132
:1036000011970480F581E02DCD01B701A801950146
:103610001995820106191709AF81B885ED91FC91C2
:1036200011970480F581E02DCD01B601A801950127
:103630001995AF81B885ED91FC9111970480F581C2
:10364000E02DCD01B701A801950119956301C20CC8
:10365000D31C8401040D151DAF81B885ED91FC913B
:1036600011970480F581E02DCD01B601A8019501E7
:1036700019957101E618F708AF81B885ED91FC91B5
:1036800011970480F581E02DCD01B701A8019501C6
:103690001995820108191909AF81B885ED91FC913E
:1036A00011970480F581E02DCD01B601A8019501A7
:1036B0001995AF81B885ED91FC9111970480F58142
:1036C000E02DCD01B701A801950119958614970445
:1036D0000CF45ECF28960FB6F894DEBF0FBECDBFB8
:1036E000CF91DF911F910F91FF90EF90DF90CF90DE
:1036F000BF90AF909F908F907F906F905F904F9012
:103700003F902F9008952F923F924F925F926F9229
:103710007F928F929F92AF92BF92CF92DF92EF9261
:10372000FF920F931F93DF93CF93CDB7DEB72E9702
:103730000FB6F894DEBF0FBECDBF9E878D871B01ED
:103740005E834D83A701260171E0C72ED12CC21ADA
:10375000D30AC901880F991F66277727681B790B41
:103760007A8369836D807E8008946108710883E0A4
:10377000882E912C8E0C9F1C790181E090E09C8317
:103780008B83AA24BB2410E0D801A170B070B88745
:10379000AF83FA013196FA87E987B80162707070D9
:1037A0007C876B8777C0D7FC0AC00894E108F108D2
:1037B00089819A8102969A838983C80ED91E0894BA
:1037C000A11CB11CAB81BC811296BC83AB83EF8181
:1037D000F885EF2B41F1AD85BE85ED91FC911197F8
:1037E000B501620D731D4D815E814E195F09970110
:1037F000220F331F89859A85280F391F0084F18590
:10380000E02DCD0182011995AD85BE85ED91FC912C
:103810001197B701620D731D0084F185E02DCD0174
:10382000A30194011995EB85FC85EF2B41F1AD8542
:10383000BE85ED91FC911197B1016A197B094D810B
:103840005E814E195F099701220F331F89859A8582
:10385000280F391F0084F185E02DCD0182011995D3
:10386000AD85BE85ED91FC911197B1016E197F096F
:103870000084F185E02DCD01A30194011995EB8120
:10388000FC81CE0EDF1E08946108710862E070E0D2
:10389000860E971EAE14BF040CF485CF2E960FB67D
:1038A000F894DEBF0FBECDBFCF91DF911F910F9176
:1038B000FF90EF90DF90CF90BF90AF909F908F9050
:1038C0007F906F905F904F903F902F9008956F92F0
:1038D0007F928F929F92AF92BF92CF92DF92EF92A0
:1038E000FF920F931F937C014B013A01590168012C
:1038F000DC01ED91FC91421B530B220F331F2F5F14
:103900003F4F0084F185E02D1995C701B401A30153
:10391000950103E0EE24FF240E94831B1F910F9169
:10392000FF90EF90DF90CF90BF90AF909F908F90DF
:103930007F906F9008952F923F924F925F926F9277
:103940007F928F929F92AF92BF92CF92DF92EF922F
:10395000FF920F931F93DF93CF9300D00F92CDB7B9
:10396000DEB73C017C836B836A015901FA82E982EC
:10397000222433249801241B350B37FF03C03095D4
:1039800021953F4FC5014B815C81841B950B97FFAF
:1039900003C0909581959F4F821793075CF481E057
:1039A000282E312CC601CB80DC809C838B83C80100
:1039B00085015C018B819C81A816B90644F4C50180
:1039C000AB80BC809C838B83C80186016C01250180
:1039D000AB81BC814A1A5B0A7801EC18FD08F7FE3E
:1039E00004C0F094E194F108F394C016D10624F0D9
:1039F00088248A94982C03C0B1E08B2E912CC201AC
:103A000062E070E00E94F5268B0125C0D301ED91A4
:103A1000FC912114310441F00480F581E02DC301B3
:103A2000B6014B815C8107C00480F581E02DC301A4
:103A30006B817C81A60129813A8119950E191F0994
:103A400017FF04C0C80CD91C040D151DEB81FC81A7
:103A50003196FC83EB834B815C81A416B506B4F6EA
:103A60000F900F900F900F90CF91DF911F910F91BA
:103A7000FF90EF90DF90CF90BF90AF909F908F908E
:103A80007F906F905F904F903F902F9008954F924E
:103A90005F926F927F928F929F92AF92BF92CF92DE
:103AA000DF92EF92FF920F931F936C015B014A012B
:103AB00039012801DC01ED91FC910284F385E02DB0
:103AC00087011995D601ED91FC91A4014150504018
:103AD000440D551D0284F385E02DC601B501930107
:103AE0001995D601ED91FC910084F185E02DC60178
:103AF000B501A40192011995D601ED91FC910894AC
:103B0000A108B108A60CB71C0084F185E02DC60100
:103B1000B501A401920119951F910F91FF90EF90AB
:103B2000DF90CF90BF90AF909F908F907F906F90DD
:103B30005F904F900895CF92DF92EF92FF920F9394
:103B40001F93DC016B017801ED91FC918A0101501A
:103B50001040020F131F0680F781E02D9601199582
:103B60001F910F91FF90EF90DF90CF900895CF922B
:103B7000DF92EF92FF920F931F93DC016A01C9015C
:103B80007801ED91FC9111979B0121503040280F55
:103B9000391F0680F781E02DCD01860119951F910F
:103BA0000F91FF90EF90DF90CF9008956F927F92EA
:103BB0008F929F92AF92BF92CF92DF92EF92FF923D
:103BC0000F931F93CF93DF935C013A016901480182
:103BD000EB01C60ED71E0DC0D501ED91FC910084FE
:103BE000F185E02DC501BE01A3019401870119955E
:103BF0002196CC15DD0584F3DF91CF911F910F91B4
:103C0000FF90EF90DF90CF90BF90AF909F908F90FC
:103C10007F906F900895EF92FF920F931F93FC0196
:103C20007B01A081B18120853185028513851E9697
:103C30000D90BC91A02D60E070E040E050E0FD01EF
:103C400019951F910F91FF90EF9008952F923F9239
:103C50004F925F926F927F928F929F92AF92BF929C
:103C6000CF92DF92EF92FF920F931F93DF93CF9348
:103C7000CDB7DEB72F970FB6F894DEBF0FBECDBF1E
:103C80005C015E834D8318870F83FA86E986CB86B5
:103C9000DC0118968D919C911997681779070CF0A3
:103CA000A4C01A968D919C911B97481759070CF048
:103CB0009CC0EC2DF0E0FF87EE87CF01880F991FA5
:103CC0008E0F9F1F880F991F860F971F18161906B2
:103CD0000CF08BC0CF01F3E0880F991FFA95E1F744
:103CE000840F951F181619060CF07FC085E0289FD9
:103CF000A00111245A8349832B011B011C825C8182
:103D0000553011F480E005C0E981FA81EE5DFD4F88
:103D100084912C863D866D807E8043011B82C82E57
:103D2000DD2480FF1CC0D501ED91FC91BB85B13035
:103D300049F40480F581E02DC501B201A3012F8172
:103D4000388522C00684F785E02DC5016C857D8508
:103D5000A4012E853F858901EF80F88423C0E98581
:103D6000FA852F813885E217F307E9F0D501ED9147
:103D7000FC91BB85B13051F40480F581E02DC50183
:103D8000B201A30129853A8519950DC00684F785EE
:103D9000E02DC5016C857D85A4012E853F858901B7
:103DA000E984FA841995EB81EF5FEB832E853F85DB
:103DB000820E931E0894611C711CE83021F0D5948A
:103DC000C7948C2DACCF3C813F5F3C834E855F8593
:103DD000240E351E0894411C511C89819A8101963C
:103DE0009A838983363009F08ACF2F960FB6F894DC
:103DF000DEBF0FBECDBFCF91DF911F910F91FF901E
:103E0000EF90DF90CF90BF90AF909F908F907F907A
:103E10006F905F904F903F902F900895CF92EF92C8
:103E2000FF920F931F93CF93DF93EC01262F6A30FD
:103E300061F42C8930E003E0220F331F0A95E1F78B
:103E40008E859F85820F931F37C06D30C9F16C85B9
:103E50007D854E855F8508891989EA88FB88CC882D
:103E60000E94261E2C8986E0289FB00111248C8593
:103E70009D85680F791F7D876C878E89882301F166
:103E8000422F50E08AEF9FEF9C01429FC001439F69
:103E9000900D529F900D112428853985820F931F14
:103EA000861797076CF413E0440F551F1A95E1F736
:103EB0008E859F85840F951F9F878E871D861C8604
:103EC00081E090E0DF91CF911F910F91FF90EF90F3
:103ED000CF900895FC0175876487578746870895BA
:103EE000FC01662309F461E0648B0895FC01738B87
:103EF000628B718B608B08950895DC0158968C91CC
:103F00005897882329F06EBD0DB407FEFDCF0895A4
:103F100030E840E050E070E0832F90E08623972364
:103F20005996ED91FC915A9796962C919697892BDC
:103F300021F08081822B808304C0808120952823FA
:103F400020835B96ED91FC915C97808197969C9184
:103F50009797892B80835B96ED91FC915C9790817C
:103F600097968C91979780958923808336954F5F9C
:103F70005F4F4830510581F608950F931F938C01D0
:103F8000DC015F96ED91FC919097908199968C91D0
:103F900099978095892380835D96ED91FC915E973A
:103FA000908198968C91809589238083C8010E9486
:103FB0007D1FD8015D96ED91FC915E97808198966A
:103FC0009C91892B80831F910F9108950F931F93CC
:103FD0008C01DC015F96ED91FC9190978081999620
:103FE0009C919997892B80835D96ED91FC915E97CA
:103FF000908198968C91809589238083C8010E9436
:104000007D1FD8015D96ED91FC915E978081989619
:104010009C91892B80831F910F910895CF92DF92FD
:10402000EF92FF920F931F937C01162FC42ED22E76
:104030006AE20E94BD1FC70160E00E94E61FF7010F
:1040400062A5610FC7010E94E61FC70160E00E94E0
:10405000E61FF70162A56D0DC7010E94E61FC701AB
:104060006BE20E94BD1FC70160E00E94E61FF701DE
:1040700063A56C0DC7010E94E61FC70160E00E94A6
:10408000E61FF70163A5600FC7010E94E61FC70185
:104090006CE20E94BD1F1F910F91FF90EF90DF9087
:1040A000CF900895FF920F931F93CF93DF93EC016E
:1040B000F22E132F77FD2EC0888599856817790712
:1040C0004CF557FD27C08A859B854817590714F57D
:1040D000262F2F5F042F0F5FCE010E940E20EF8D41
:1040E000F8A1808199A5892B8083ED8DFE8D90812B
:1040F00088A5809589238083CE01612F0E947D1F32
:10410000CE016F2D0E947D1FED8DFE8D808198A5C3
:10411000892B8083DF91CF911F910F91FF9008959C
:10412000DF92EF92FF920F931F93CF93DF93EC01F7
:10413000FB017901D02E8885998568177907D4F518
:104140002A853B8542175307ACF5C701840F951F9D
:10415000281739071CF47901E41AF50A042F0150D5
:104160000E0DCE016E2F2E2F0E940E20EF8DF8A186
:10417000808199A5892B8083ED8DFE8D908188A506
:1041800080958923808308C0CE01612F0E947D1F06
:10419000CE016D2D0E947D1F0894E108F1088FEF7C
:1041A000E8168FEFF80681F7ED8DFE8D808198A5DA
:1041B000892B8083DF91CF911F910F91FF90EF901A
:1041C000DF900895DF92EF92FF920F931F93CF93AA
:1041D000DF93EC01FA017901D02E28853985621729
:1041E0007307D4F58A859B8548175907ACF5C70135
:1041F000860F971F281739071CF47901E61AF70A6A
:10420000262F21502E0DCE014E2F0E2F0E940E2054
:10421000EF8DF8A1808199A5892B8083ED8DFE8D8E
:10422000908188A580958923808308C0CE01612F65
:104230000E947D1FCE016D2D0E947D1F0894E10814
:10424000F1088FEFE8168FEFF80681F7ED8DFE8D00
:10425000808198A5892B8083DF91CF911F910F9149
:10426000FF90EF90DF900895EF92FF920F931F93CE
:10427000FC017B01A081B1812085318502851385F8
:104280001E960D90BC91A02D60E070E040E050E0E3
:10429000FD0119951F910F91FF90EF900895AF9236
:1042A000BF92CF92DF92EF92FF920F931F93CF9323
:1042B000DF936C015901E801DC0118962D913C91C6
:1042C0001997621773070CF057C01A96ED91FC917D
:1042D0001B974E175F070CF04FC0C501860F971F45
:1042E000281739071CF45901A61AB70ACE01840F02
:1042F000951FE817F9071CF4EF01C41BD50B262FF7
:1043000021502A0D042F01500C0FC6010E940E20CF
:10431000D6015F96ED91FC919097808199969C9142
:104320009997892B80835D96ED91FC915E979081A2
:1043300098968C918095892380838E010EC0C6014A
:104340006F2D0E947D1FC6016E2D0E947D1F21973B
:104350001C161D06A4F3015010401016110614F48B
:10436000E501F6CFD6015D96ED91FC915E978081D7
:1043700098969C91892B8083DF91CF911F910F910B
:10438000FF90EF90DF90CF90BF90AF9008951F9374
:10439000CF93DF93EC01162F66E30E94BD1F1370CD
:1043A0001D8B113081F0113028F01230A9F013303C
:1043B000B1F523C08F89823019F4CE0160EC14C0AE
:1043C000CE0168EC11C08F89823019F4CE0160EA09
:1043D0001CC0CE0168EA19C08F89823019F4CE0161
:1043E00060E002C0CE0168E00E94E61F80E890E035
:1043F0009987888780EA90E010C08F89823019F40D
:10440000CE0160E602C0CE0168E60E94E61F80EAA7
:1044100090E09987888780E890E09B878A87DF9182
:10442000CF911F910895662311F460E201C061E20B
:104430000E94BD1F0895AF92BF92CF92DF92EF927C
:10444000FF920F931F93CF93DF935C01FB01EB016E
:104450002196D49031C08E010F5F1F4FFE016491F1
:10446000C5010E94BD1F78010894E11CF11CF801F0
:10447000C4900C2D0F77E701102F08C0FE01219684
:10448000E491C5016E2F0E94E61F11501123B1F770
:10449000E701C00FD11DC7FE0EC0FE018491682F39
:1044A00070E06F3F710511F464EF71E0219680E0D8
:1044B00090E00E945312DA94DD2069F6DF91CF91EB
:1044C0001F910F91FF90EF90DF90CF90BF90AF9032
:1044D00008950F931F93CF93DF93EC018B011BA6DD
:1044E0001AA68AA161E00E940E1389A161E00E94D0
:1044F0000E13E9A14E2F50E0FA01E05BFE4FE4916C
:10450000F0E0EE0FFF1FE45EFE4F859194919E8FC9
:104510008D8FEAA12E2F30E0F901E05BFE4FE49190
:10452000F0E0EE0FFF1FE45EFE4F8591949198A39B
:104530008F8F4A565E4FFA01849188A72A563E4FC4
:10454000F901849189A7888D882361F00E949423C2
:1045500080E00E94832381E00E94752380E00E9416
:104560007E233DC08DA161E00E940E138CA161E00D
:104570000E940E13EDA14E2F50E0FA01E05BFE4FBA
:10458000E491F0E0EE0FFF1FE45EFE4FA591B491C1
:10459000BC8FAB8FECA12E2F30E0F901E05BFE4F1A
:1045A000E491F0E0EE0FFF1FE45EFE4F85919491E1
:1045B0009A8F898F4A565E4FFA0194919FA32A568B
:1045C0003E4FF90184918EA38C91909598239C93F2
:1045D000E98DFA8D90818EA1809589238083ED8D60
:1045E000FE8D908188A58095892380838BA1882367
:1045F00009F161E00E940E138BA161E00E94C113DA
:1046000064EF71E080E090E00E9453128BA160E0C3
:104610000E94C11364EF71E080E090E00E945312A9
:104620008BA161E00E94C11364EF71E080E090E033
:104630000E9453120115110521F0CE01B8010E940C
:104640001B22DF91CF911F910F9108951F93CF935C
:10465000DF93EC01162F6DE177E00E9469221123B0
:1046600051F4CE0168E577E00E941B2282E08AA720
:1046700081E08BA705C0CE0165E677E00E941B2292
:10468000CE0162E777E00E941B22123041F4CE0196
:1046900066E30E94BD1FCE0160EC0E94E61F1F8BE7
:1046A000DF91CF911F910895DF92EF92FF920F93C8
:1046B0001F938C01F62EE42ED22E60E870E040EAC3
:1046C00050E00E94381A8EEC95E0F80191838083C7
:1046D000F1A2E2A2D3A281E0808F15A214A21F91C1
:1046E0000F91FF90EF90DF900895882319F48CB517
:1046F000806202C08CB58F7D8CBD08959CB5937F80
:10470000982B9CBD08952CB5382F33702C7F322BFD
:104710003CBD2DB590E095958795959587958170D1
:104720002E7F822B8DBD089584E361E00E940E13DD
:1047300083E361E00E940E1385E361E00E940E13A3
:1047400084E360E00E94C11383E360E00E94C11330
:1047500085E361E00E94C1138CB580618CBD8CB58E
:1047600080648CBD0895AF92BF92CF92DF92EF929A
:10477000FF920F931F93CF93DF93EC01A880B98032
:10478000CA80DB80A114B104C104D10441F484E2E5
:10479000A82E89EDB82E8BE5C82E87E0D82EC6014D
:1047A000B5012DE133EF41E050E00E942A2727EACE
:1047B00031E440E050E00E94C2267B018C01C6013A
:1047C000B5012DE133EF41E050E00E942A27CA01F4
:1047D000B9012CEE34EF4FEF5FEF0E94C2266E0D51
:1047E0007F1D801F911F97FF04C061507040804063
:1047F0009048688379838A839B839B01AC015F77B0
:10480000B901CA01DF91CF911F910F91FF90EF90F5
:10481000DF90CF90BF90AF9008950E94B32308958A
:1048200082E995E00E94B323089560939205709306
:10483000930580939405909395050895F8940C94AE
:104840004B275058BB27AA270ED0A0C169D130F002
:104850006ED120F031F49F3F11F41EF45EC10EF4CE
:10486000E095E7FB54C1E92FB3D180F3BA17620793
:1048700073078407950718F071F49EF5CBC10EF409
:10488000E0950B2EBA2FA02D0B01B90190010C0160
:10489000CA01A0011124FF27591B99F0593F50F478
:1048A000503E68F11A16F040A22F232F342F4427D0
:1048B000585FF3CF469537952795A795F0405395C8
:1048C000C9F77EF41F16BA0B620B730B840BBAF098
:1048D0009150A1F0FF0FBB1F661F771F881FC2F703
:1048E0000EC0BA0F621F731F841F48F48795779517
:1048F0006795B795F7959E3F08F0B3CF9395880FCE
:1049000008F09927EE0F979587950895DCD008F465
:1049100081E0089514D1E3954AC10CD037C107D185
:1049200040F0FED030F021F45F3F19F0F0C051119B
:1049300072C1F3C04DD198F39923C9F35523B1F354
:10494000951B550BBB27AA2762177307840738F0FE
:104950009F5F5F4F220F331F441FAA1FA9F333D05D
:104960000E2E3AF0E0E830D091505040E695001C11
:10497000CAF729D0FE2F27D0660F771F881FBB1FCD
:10498000261737074807AB07B0E809F0BB0B802DA7
:10499000BF01FF2793585F4F2AF09E3F510568F0F3
:1049A000B6C039C15F3FECF3983EDCF3869577954E
:1049B0006795B795F7959F5FC9F7880F911D9695F5
:1049C000879597F90895E1E0660F771F881FBB1F51
:1049D000621773078407BA0720F0621B730B840BFE
:1049E000BA0BEE1F88F7E095089504D06894B111D2
:1049F00012C10895F5D088F09F5790F0B92F9927EC
:104A0000B751A0F0D1F0660F771F881F991F1AF0D9
:104A1000BA95C9F712C0B13081F0FCD0B1E0089569
:104A2000F9C0672F782F8827B85F39F0B93FCCF3EA
:104A3000869577956795B395D9F73EF490958095CF
:104A4000709561957F4F8F4F9F4F0895E89409C0EF
:104A500097FB3EF490958095709561957F4F8F4FB1
:104A60009F4F9923A9F0F92F96E9BB279395F695C7
:104A7000879577956795B795F111F8CFFAF4BB0F45
:104A800011F460FF1BC06F5F7F4F8F4F9F4F16C0A9
:104A9000882311F096E911C0772321F09EE8872F33
:104AA000762F05C0662371F096E8862F70E060E0EF
:104AB0002AF09A95660F771F881FDAF7880F969568
:104AC000879597F90895990F0008550FAA0BE0E80C
:104AD000FEEF16161706E807F907C0F012161306C0
:104AE000E407F50798F0621B730B840B950B39F400
:104AF0000A2661F0232B242B252B21F408950A2666
:104B000009F4A140A6958FEF811D811D089597F9A5
:104B10009F6780E870E060E008959FEF80EC089563
:104B200000240A941616170618060906089500248C
:104B30000A9412161306140605060895EECF50D0F7
:104B4000E8F3E894E0E0BB279F57F0F02AED3FE060
:104B500049EC06C0EE0FBB0F661F771F881F28F0B9
:104B6000B23A62077307840728F0B25A620B730BDC
:104B7000840BE3959A9572F7803830F49A95BB0FC1
:104B8000661F771F881FD2F79048BAC0092E03947A
:104B9000000C11F4882352F0BB0F40F4BF2B11F42A
:104BA00060FF04C06F5F7F4F8F4F9F4F0895EF935B
:104BB000E0FF06C0A2EA2AED3FE049EC5FEB53DEDE
:104BC000E5DF0F90039401FC9058E4EEF0E0A4C000
:104BD00057FD9058440F551F59F05F3F71F04795AE
:104BE000880F97FB991F61F09F3F79F08795089593
:104BF000121613061406551FF2CF4695F1DF08C0B2
:104C0000161617061806991FF1CF869571056105CE
:104C100008940895E894BB2766277727CB0197F976
:104C2000089551DF08F48FEF08950BD0AFCF78DFF0
:104C300028F07DDF18F0952309F069CF6ECF11249D
:104C4000EACFC6DFA0F3959FD1F3950F50E0551F33
:104C5000629FF001729FBB27F00DB11D639FAA27D1
:104C6000F00DB11DAA1F649F6627B00DA11D661F20
:104C7000829F2227B00DA11D621F739FB00DA11D41
:104C8000621F839FA00D611D221F749F3327A00DFB
:104C9000611D231F849F600D211D822F762F6A2F97
:104CA00011249F5750408AF0E1F088234AF0EE0F1C
:104CB000FF1FBB1F661F771F881F91505040A9F729
:104CC0009E3F510570F023CFA6CF5F3FECF3983E97
:104CD000DCF3869577956795B795F795E7959F5F90
:104CE000C1F7FE2B880F911D9695879597F908952A
:104CF0009F9325DF0F9007FCEE5F59CF9F3F31F068
:104D0000915020F4879577956795B795880F911DF9
:104D10009695879597F908959F938F937F936F93B7
:104D2000FF93EF939B01AC0180DFEF91FF9105D0E2
:104D30002F913F914F915F9178CFDF93CF931F9346
:104D40000F93FF92EF92DF927B018C01689405C074
:104D5000DA2EEF0176DFFE01E894A59125913591D9
:104D600045915591AEF3EF017EDDFE019701A8015B
:104D7000DA9479F7DF90EF90FF900F911F91CF9128
:104D8000DF910895629FD001739FF001829FE00D33
:104D9000F11D649FE00DF11D929FF00D839FF00DBA
:104DA000749FF00D659FF00D9927729FB00DE11D66
:104DB000F91F639FB00DE11DF91FBD01CF01112443
:104DC0000895AA1BBB1B51E107C0AA1FBB1FA61752
:104DD000B70710F0A61BB70B881F991F5A95A9F7A4
:104DE00080959095BC01CD01089597FB092E07266B
:104DF0000AD077FD04D0E5DF06D000201AF47095C4
:104E000061957F4F0895F6F7909581959F4F08958E
:104E1000A1E21A2EAA1BBB1BFD010DC0AA1FBB1FBE
:104E2000EE1FFF1FA217B307E407F50720F0A21B30
:104E3000B30BE40BF50B661F771F881F991F1A949D
:104E400069F760957095809590959B01AC01BD01C7
:104E5000CF01089597FB092E05260ED057FD04D0EB
:104E6000D7DF0AD0001C38F4509540953095219535
:104E70003F4F4F4F5F4F0895F6F79095809570958F
:104E800061957F4F8F4F9F4F0895EE0FFF1F059045
:0A4E9000F491E02D1994F894FFCF7F
:104E9A002D2D007C00576F756C6420796F75206C1E
:104EAA00696B6520746F20706C61792061202032F3
:104EBA002D506C61796572206D6174636820285089
:104ECA006C617965722076732E506C6179657229EE
:104EDA002C206F72206120312D506C61796572200F
:104EEA002020206D617463682028506C6179657296
:104EFA002076732E20436F6D7075746572293F009A
:104F0A000A0D0A0D4D6F766520746865206A6F79FF
:104F1A00737469636B20746F2020202020207365CE
:104F2A006C65637420616E206F7074696F6E2E20D9
:104F3A0054686520202020206F7074696F6E206489
:104F4A006973706C6179656420696E20726564208A
:104F5A00202077696C6C2062652073656C656374C8
:104F6A006564207768656E20746865206A6F797356
:104F7A007469636B20697320707265737365642E3C
:104F8A0000506C617965722076732E20506C6179BD
:104F9A0065720A0D00506C617965722076732E2055
:104FAA00436F6D70757465720047414D45204D41E0
:104FBA004E55414C000A0D0A0D4F424A4543544989
:104FCA0056453A0A0D546F20686974207468652042
:104FDA00636861726163746572206F6E2020207449
:104FEA006865206F70706F73697465207369646592
:104FFA00206F66207468652020706C6179696E671D
:10500A00206669656C642E2054686520706C61792D
:10501A00696E676669656C64206973207468726575
:10502A00652073637265656E20202020206C656E92
:10503A00677468732E000A0D0A0D0A0D0A0D0A0D0F
:10504A005072657373204A6F79737469636B205465
:10505A006F20436F6E74696E756500434F4E5452EC
:10506A004F4C533A200A0D4D6F76652074686520BF
:10507A006A6F79737469636B20746F202020202013
:10508A002061646A7573742074686520616E676C48
:10509A0065206F662074686520202073686F742EFF
:1050AA00200041646A75737420746865202020208A
:1050BA00202020202020706F74656E74696F6D65E2
:1050CA0074657220746F206368616E6765202020A2
:1050DA0074686520706F776572206F6620746865E2
:1050EA002073686F742E2000546865707573686247
:1050FA007574746F6E206669726573210A0D0A0DE4
:10510A0000486170707920666972696E6721000AC9
:10511A000D0A0D0A0D5072657373204A6F79737404
:10512A0069636B20546F20426567696E21004849A4
:10513A005421005072657373204A6F7973746963DE
:10514A006B20546F20426567696E2100416E676C5F
:10515A00653A2000206465677265657300506F7751
:10516A0065723A20000A0D0A0D0A0D5072657373B2
:10517A00206A6F79737469636B20746F206578692C
:10518A007421002D2D2D50524F4752414D2042453A
:10519A0047494E2D2D2D00504C4159455220322061
:1051AA00484153204245454E20484954210A0D2082
:1051BA002020202000204C495645532052454D417D
:1051CA00494E494E4700504C4159455220312048DA
:1051DA004153204245454E20484954210A0D20207A
:1051EA0020202000202047414D45204F564552009F
:1051FA000A0D0A0D202020202020506C617965724A
:10520A0020322057696E7321000A0D0A0D202020D2
:10521A00202020506C6179657220312057696E73A5
:10522A0021000100000046004600030003000300BD
:10523A000101000000003F17A618D3160417E41650
:10524A002D17000000000E1FA618A5189B1C9B1DF9
:10525A00B71D471DD61D0B1E7C1F000000000E1F28
:10526A00A61852209B1C9020E220471D4F21342172
:02527A001322FD
:00000001FF
